{
  "contractName": "MusicGenerator",
  "abi": [
    {
      "constant": false,
      "inputs": [
        {
          "name": "listener",
          "type": "address"
        }
      ],
      "name": "listenToSong",
      "outputs": [],
      "payable": true,
      "stateMutability": "payable",
      "type": "function"
    },
    {
      "constant": false,
      "inputs": [
        {
          "name": "priceToListen",
          "type": "uint256"
        },
        {
          "name": "hash",
          "type": "bytes32"
        }
      ],
      "name": "buySong",
      "outputs": [],
      "payable": true,
      "stateMutability": "payable",
      "type": "function"
    },
    {
      "constant": true,
      "inputs": [
        {
          "name": "",
          "type": "address"
        }
      ],
      "name": "songOwnership",
      "outputs": [
        {
          "name": "price",
          "type": "uint256"
        },
        {
          "name": "priceToListen",
          "type": "uint256"
        },
        {
          "name": "songHash",
          "type": "bytes32"
        }
      ],
      "payable": false,
      "stateMutability": "view",
      "type": "function"
    },
    {
      "inputs": [],
      "payable": false,
      "stateMutability": "nonpayable",
      "type": "constructor"
    },
    {
      "anonymous": false,
      "inputs": [
        {
          "indexed": false,
          "name": "owner",
          "type": "address"
        },
        {
          "indexed": false,
          "name": "price",
          "type": "uint256"
        },
        {
          "indexed": false,
          "name": "priceToListen",
          "type": "uint256"
        },
        {
          "indexed": false,
          "name": "songHash",
          "type": "bytes32"
        }
      ],
      "name": "Purchase",
      "type": "event"
    }
  ],
  "bytecode": "0x6060604052341561000f57600080fd5b336000806101000a81548173ffffffffffffffffffffffffffffffffffffffff021916908373ffffffffffffffffffffffffffffffffffffffff1602179055506104978061005e6000396000f300606060405260043610610057576000357c0100000000000000000000000000000000000000000000000000000000900463ffffffff16806345cf3b431461005c57806351da65e11461008a578063a9b25928146100af575b600080fd5b610088600480803573ffffffffffffffffffffffffffffffffffffffff16906020019091905050610112565b005b6100ad60048080359060200190919080356000191690602001909190505061025d565b005b34156100ba57600080fd5b6100e6600480803573ffffffffffffffffffffffffffffffffffffffff16906020019091905050610441565b604051808481526020018381526020018260001916600019168152602001935050505060405180910390f35b600160008060009054906101000a900473ffffffffffffffffffffffffffffffffffffffff1673ffffffffffffffffffffffffffffffffffffffff1673ffffffffffffffffffffffffffffffffffffffff168152602001908152602001600020600101548173ffffffffffffffffffffffffffffffffffffffff163110151561025a576000809054906101000a900473ffffffffffffffffffffffffffffffffffffffff1673ffffffffffffffffffffffffffffffffffffffff166108fc600160008060009054906101000a900473ffffffffffffffffffffffffffffffffffffffff1673ffffffffffffffffffffffffffffffffffffffff1673ffffffffffffffffffffffffffffffffffffffff168152602001908152602001600020600101549081150290604051600060405180830381858888f19350505050151561025957600080fd5b5b50565b34600160008060009054906101000a900473ffffffffffffffffffffffffffffffffffffffff1673ffffffffffffffffffffffffffffffffffffffff1673ffffffffffffffffffffffffffffffffffffffff1681526020019081526020016000206000018190555081600160008060009054906101000a900473ffffffffffffffffffffffffffffffffffffffff1673ffffffffffffffffffffffffffffffffffffffff1673ffffffffffffffffffffffffffffffffffffffff1681526020019081526020016000206001018190555080600160008060009054906101000a900473ffffffffffffffffffffffffffffffffffffffff1673ffffffffffffffffffffffffffffffffffffffff1673ffffffffffffffffffffffffffffffffffffffff16815260200190815260200160002060020181600019169055507f496d241fd8f974630e0bbc2c3e72a87eb83de274b7637d33ac4c6bb5050446d36000809054906101000a900473ffffffffffffffffffffffffffffffffffffffff16348484604051808573ffffffffffffffffffffffffffffffffffffffff1673ffffffffffffffffffffffffffffffffffffffff168152602001848152602001838152602001826000191660001916815260200194505050505060405180910390a15050565b600160205280600052604060002060009150905080600001549080600101549080600201549050835600a165627a7a72305820db883b28d8ce8f34403f53ec6e79da5028806e3cf26979101f1328330f3636020029",
  "source": "pragma solidity ^0.4.18;\r\n\r\n/*\r\n Contract for Music Generator\r\n*/\r\n\r\ncontract MusicGenerator {\r\n    \r\n    // Owner state variable\r\n    address owner;\r\n    \r\n    // Constructor\r\n    function MusicGenerator() public {\r\n        owner = msg.sender;\r\n    }\r\n    \r\n    // Event of a song's purchase\r\n    event Purchase (address owner, uint price, uint priceToListen, bytes32 songHash);\r\n    \r\n    // Song struct\r\n    struct Song {\r\n        uint price;\r\n        uint priceToListen;\r\n        bytes32 songHash;\r\n    }\r\n    \r\n    // Mapping of owners to songs;\r\n    mapping (address => Song) public songOwnership;\r\n    \r\n    // function used to buy the generated song\r\n    function buySong(uint priceToListen, bytes32 hash) public payable {\r\n        songOwnership[owner].price = msg.value;\r\n        songOwnership[owner].priceToListen = priceToListen;\r\n        songOwnership[owner].songHash = hash;\r\n        \r\n        Purchase(owner, msg.value, priceToListen, hash);\r\n    }\r\n    \r\n    // function used to listen to a song \r\n    function listenToSong(address listener) public payable {\r\n        if(listener.balance >= songOwnership[owner].priceToListen){\r\n            owner.transfer(songOwnership[owner].priceToListen);\r\n        }\r\n    }\r\n    \r\n}",
  "sourcePath": "C:\\Users\\Mikerah\\Documents\\GitHub\\ethmusicgen\\contracts\\MusicGenerator.sol",
  "compiler": {
    "name": "solc",
    "version": "0.4.18+commit.9cf6e910.Emscripten.clang"
  },
  "schemaVersion": "1.0.1",
  "updatedAt": "2018-01-02T01:33:20.907Z"
}